{
  "contractName": "AccessArray",
  "abi": [
    {
      "constant": true,
      "inputs": [],
      "name": "name",
      "outputs": [
        {
          "name": "",
          "type": "string"
        }
      ],
      "payable": false,
      "stateMutability": "view",
      "type": "function",
      "signature": "0x06fdde03"
    },
    {
      "constant": true,
      "inputs": [],
      "name": "numberItems",
      "outputs": [
        {
          "name": "",
          "type": "uint256"
        }
      ],
      "payable": false,
      "stateMutability": "view",
      "type": "function",
      "signature": "0x314af5b4"
    },
    {
      "constant": true,
      "inputs": [
        {
          "name": "",
          "type": "uint256"
        }
      ],
      "name": "items",
      "outputs": [
        {
          "name": "id",
          "type": "uint256"
        },
        {
          "name": "name",
          "type": "string"
        }
      ],
      "payable": false,
      "stateMutability": "view",
      "type": "function",
      "signature": "0xbfb231d2"
    },
    {
      "inputs": [],
      "payable": false,
      "stateMutability": "nonpayable",
      "type": "constructor",
      "signature": "constructor"
    },
    {
      "constant": false,
      "inputs": [
        {
          "name": "index",
          "type": "uint256"
        }
      ],
      "name": "getNumberItemAccounts",
      "outputs": [
        {
          "name": "",
          "type": "uint256"
        }
      ],
      "payable": false,
      "stateMutability": "nonpayable",
      "type": "function",
      "signature": "0x07e89ba2"
    },
    {
      "constant": false,
      "inputs": [
        {
          "name": "itemIndex",
          "type": "uint256"
        },
        {
          "name": "accountIndex",
          "type": "uint256"
        }
      ],
      "name": "getItemAccount",
      "outputs": [
        {
          "name": "",
          "type": "address"
        }
      ],
      "payable": false,
      "stateMutability": "nonpayable",
      "type": "function",
      "signature": "0x51c56438"
    }
  ],
  "bytecode": "0x608060405234801561001057600080fd5b50606060405190810160405280602c81526020017f44656d6f206163636573732061727261792077697468696e206d617070696e6781526020017f2074797065206d656d6f72790000000000000000000000000000000000000000815250600090805190602001906100839291906104e2565b50600060026000808152602001908152602001600020600001819055506040805190810160405280600b81526020017f666972737420656e7472790000000000000000000000000000000000000000008152506002600080815260200190815260200160002060010190805190602001906100ff9291906104e2565b506002600080815260200190815260200160002060020173dabec0c136ec139686d29f7ccd4c2989fec83e1a90806001815401808255809150509060018203906000526020600020016000909192909190916101000a81548173ffffffffffffffffffffffffffffffffffffffff021916908373ffffffffffffffffffffffffffffffffffffffff16021790555050600260008081526020019081526020016000206002017329a228b29c4b90f4f9542f85bbc725203025c8cd90806001815401808255809150509060018203906000526020600020016000909192909190916101000a81548173ffffffffffffffffffffffffffffffffffffffff021916908373ffffffffffffffffffffffffffffffffffffffff160217905550506002600080815260200190815260200160002060020173f6b34b0d8952e381ed43c849fdd148cbeea0bda090806001815401808255809150509060018203906000526020600020016000909192909190916101000a81548173ffffffffffffffffffffffffffffffffffffffff021916908373ffffffffffffffffffffffffffffffffffffffff1602179055505060016002600060018152602001908152602001600020600001819055506040805190810160405280600c81526020017f7365636f6e6420656e7472790000000000000000000000000000000000000000815250600260006001815260200190815260200160002060010190805190602001906103279291906104e2565b506002600060018152602001908152602001600020600201732b3a5bd2441abc9dc84cf7fc4c770baef0d6d6fd90806001815401808255809150509060018203906000526020600020016000909192909190916101000a81548173ffffffffffffffffffffffffffffffffffffffff021916908373ffffffffffffffffffffffffffffffffffffffff160217905550506002600060018152602001908152602001600020600201733e3f6622854ec2e4fcd9cae612aa068d1f8add1990806001815401808255809150509060018203906000526020600020016000909192909190916101000a81548173ffffffffffffffffffffffffffffffffffffffff021916908373ffffffffffffffffffffffffffffffffffffffff1602179055505060026000600181526020019081526020016000206002017393029b2a3a2ff092e9f92b00e6179c99ad698a1690806001815401808255809150509060018203906000526020600020016000909192909190916101000a81548173ffffffffffffffffffffffffffffffffffffffff021916908373ffffffffffffffffffffffffffffffffffffffff160217905550506002600181905550610587565b828054600181600116156101000203166002900490600052602060002090601f016020900481019282601f1061052357805160ff1916838001178555610551565b82800160010185558215610551579182015b82811115610550578251825591602001919060010190610535565b5b50905061055e9190610562565b5090565b61058491905b80821115610580576000816000905550600101610568565b5090565b90565b6104c3806105966000396000f3fe60806040526004361061006d576000357c0100000000000000000000000000000000000000000000000000000000900463ffffffff16806306fdde031461007257806307e89ba214610102578063314af5b41461015157806351c564381461017c578063bfb231d214610201575b600080fd5b34801561007e57600080fd5b506100876102bc565b6040518080602001828103825283818151815260200191508051906020019080838360005b838110156100c75780820151818401526020810190506100ac565b50505050905090810190601f1680156100f45780820380516001836020036101000a031916815260200191505b509250505060405180910390f35b34801561010e57600080fd5b5061013b6004803603602081101561012557600080fd5b810190808035906020019092919050505061035a565b6040518082815260200191505060405180910390f35b34801561015d57600080fd5b5061016661037d565b6040518082815260200191505060405180910390f35b34801561018857600080fd5b506101bf6004803603604081101561019f57600080fd5b810190808035906020019092919080359060200190929190505050610383565b604051808273ffffffffffffffffffffffffffffffffffffffff1673ffffffffffffffffffffffffffffffffffffffff16815260200191505060405180910390f35b34801561020d57600080fd5b5061023a6004803603602081101561022457600080fd5b81019080803590602001909291905050506103db565b6040518083815260200180602001828103825283818151815260200191508051906020019080838360005b83811015610280578082015181840152602081019050610265565b50505050905090810190601f1680156102ad5780820380516001836020036101000a031916815260200191505b50935050505060405180910390f35b60008054600181600116156101000203166002900480601f0160208091040260200160405190810160405280929190818152602001828054600181600116156101000203166002900480156103525780601f1061032757610100808354040283529160200191610352565b820191906000526020600020905b81548152906001019060200180831161033557829003601f168201915b505050505081565b600060026000838152602001908152602001600020600201805490509050919050565b60015481565b600060026000848152602001908152602001600020600201828154811015156103a857fe5b9060005260206000200160009054906101000a900473ffffffffffffffffffffffffffffffffffffffff16905092915050565b6002602052806000526040600020600091509050806000015490806001018054600181600116156101000203166002900480601f01602080910402602001604051908101604052809291908181526020018280546001816001161561010002031660029004801561048d5780601f106104625761010080835404028352916020019161048d565b820191906000526020600020905b81548152906001019060200180831161047057829003601f168201915b505050505090508256fea165627a7a723058202bab8de79fe92397b8f21d20d83159a530b547b7408bc4bbf8d120883d7152130029",
  "source": "pragma solidity ^0.5.0;\n\ncontract AccessArray {\n    string public name;\n    uint public numberItems;\n\n    mapping (uint => Item) public items;\n\n    constructor() public {\n        name = \"Demo access array within mapping type memory\";\n\n// Definition  of 2 items \n        items[0].id = 0;\n        items[0].name = \"first entry\";\n        items[0].accounts.push(0xdaBEC0c136EC139686d29f7CCD4C2989fEc83e1a);\n        items[0].accounts.push(0x29a228B29C4b90F4F9542f85bBC725203025C8CD);\n        items[0].accounts.push(0xF6b34B0D8952E381eD43c849FdD148CBEEA0bDa0);\n\n\n// this part could be improved\n        items[1].id = 1;\n        items[1].name = \"second entry\";\n        items[1].accounts.push(0x2b3A5Bd2441ABc9dc84Cf7fC4C770bAeF0D6d6fd);\n        items[1].accounts.push(0x3e3F6622854Ec2E4fCD9cae612aa068d1f8aDD19);\n        items[1].accounts.push(0x93029b2A3a2ff092E9f92b00E6179C99Ad698A16);\n\n        numberItems= 2;\n    }\n\n    struct Item {\n        uint id;\n        string name;\n        address payable[] accounts;\n    }\n/** \n */\n    function getNumberItemAccounts (uint index) public returns (uint) {\n        return items[index].accounts.length;\n    }\n\n/** Get 1 account defined by its index from an item defined by its index\n */\n    function getItemAccount(uint itemIndex, uint accountIndex) public returns (address payable){\n        return items[itemIndex].accounts[accountIndex];\n    }\n}",
  "sourcePath": "/home/alex/Dev/Tut/access-array-solidity/src/contracts/AccessArray.sol",
  "compiler": {
    "name": "solc",
    "version": "0.5.0+commit.1d4f565a.Emscripten.clang"
  },
  "schemaVersion": "3.0.2",
  "updatedAt": "2020-02-14T01:21:49.217Z",
  "devdoc": {
    "methods": {}
  },
  "userdoc": {
    "methods": {
      "getItemAccount(uint256,uint256)": {
        "notice": "Get 1 account defined by its index from an item defined by its index"
      }
    }
  }
}