{
  "contractName": "AccessArray",
  "abi": [
    {
      "constant": true,
      "inputs": [],
      "name": "name",
      "outputs": [
        {
          "name": "",
          "type": "string"
        }
      ],
      "payable": false,
      "stateMutability": "view",
      "type": "function",
      "signature": "0x06fdde03"
    },
    {
      "constant": true,
      "inputs": [],
      "name": "numberItems",
      "outputs": [
        {
          "name": "",
          "type": "uint256"
        }
      ],
      "payable": false,
      "stateMutability": "view",
      "type": "function",
      "signature": "0x314af5b4"
    },
    {
      "constant": true,
      "inputs": [
        {
          "name": "",
          "type": "uint256"
        }
      ],
      "name": "items",
      "outputs": [
        {
          "name": "id",
          "type": "uint256"
        },
        {
          "name": "name",
          "type": "string"
        }
      ],
      "payable": false,
      "stateMutability": "view",
      "type": "function",
      "signature": "0xbfb231d2"
    },
    {
      "inputs": [],
      "payable": false,
      "stateMutability": "nonpayable",
      "type": "constructor",
      "signature": "constructor"
    },
    {
      "constant": false,
      "inputs": [
        {
          "name": "index",
          "type": "uint256"
        }
      ],
      "name": "getNumberItemAccounts",
      "outputs": [
        {
          "name": "",
          "type": "uint256"
        }
      ],
      "payable": false,
      "stateMutability": "nonpayable",
      "type": "function",
      "signature": "0x07e89ba2"
    },
    {
      "constant": false,
      "inputs": [
        {
          "name": "itemIndex",
          "type": "uint256"
        },
        {
          "name": "accountIndex",
          "type": "uint256"
        }
      ],
      "name": "getItemAccount",
      "outputs": [
        {
          "name": "",
          "type": "address"
        }
      ],
      "payable": false,
      "stateMutability": "nonpayable",
      "type": "function",
      "signature": "0x51c56438"
    },
    {
      "constant": false,
      "inputs": [
        {
          "name": "itemIndex",
          "type": "uint256"
        }
      ],
      "name": "getAccounts",
      "outputs": [
        {
          "name": "",
          "type": "address[]"
        }
      ],
      "payable": false,
      "stateMutability": "nonpayable",
      "type": "function",
      "signature": "0xd85b1729"
    },
    {
      "constant": true,
      "inputs": [],
      "name": "getItems",
      "outputs": [
        {
          "components": [
            {
              "name": "id",
              "type": "uint256"
            },
            {
              "name": "name",
              "type": "string"
            },
            {
              "name": "accounts",
              "type": "address[]"
            }
          ],
          "name": "",
          "type": "tuple[]"
        }
      ],
      "payable": false,
      "stateMutability": "view",
      "type": "function",
      "signature": "0x410d59cc"
    }
  ],
  "bytecode": "0x608060405234801561001057600080fd5b50606060405190810160405280602c81526020017f44656d6f206163636573732061727261792077697468696e206d617070696e6781526020017f2074797065206d656d6f7279000000000000000000000000000000000000000081525060009080519060200190610083929190610571565b50600060026000808152602001908152602001600020600001819055506040805190810160405280600b81526020017f666972737420656e7472790000000000000000000000000000000000000000008152506002600080815260200190815260200160002060010190805190602001906100ff929190610571565b506002600080815260200190815260200160002060020173dabec0c136ec139686d29f7ccd4c2989fec83e1a90806001815401808255809150509060018203906000526020600020016000909192909190916101000a81548173ffffffffffffffffffffffffffffffffffffffff021916908373ffffffffffffffffffffffffffffffffffffffff16021790555050600260008081526020019081526020016000206002017329a228b29c4b90f4f9542f85bbc725203025c8cd90806001815401808255809150509060018203906000526020600020016000909192909190916101000a81548173ffffffffffffffffffffffffffffffffffffffff021916908373ffffffffffffffffffffffffffffffffffffffff1602179055505060026000808152602001908152602001600020600201733e3f6622854ec2e4fcd9cae612aa068d1f8add1990806001815401808255809150509060018203906000526020600020016000909192909190916101000a81548173ffffffffffffffffffffffffffffffffffffffff021916908373ffffffffffffffffffffffffffffffffffffffff1602179055505060016002600060018152602001908152602001600020600001819055506040805190810160405280600c81526020017f7365636f6e6420656e747279000000000000000000000000000000000000000081525060026000600181526020019081526020016000206001019080519060200190610327929190610571565b50600260006001815260200190815260200160002060020173f6b34b0d8952e381ed43c849fdd148cbeea0bda090806001815401808255809150509060018203906000526020600020016000909192909190916101000a81548173ffffffffffffffffffffffffffffffffffffffff021916908373ffffffffffffffffffffffffffffffffffffffff160217905550506002600060018152602001908152602001600020600201732b3a5bd2441abc9dc84cf7fc4c770baef0d6d6fd90806001815401808255809150509060018203906000526020600020016000909192909190916101000a81548173ffffffffffffffffffffffffffffffffffffffff021916908373ffffffffffffffffffffffffffffffffffffffff160217905550506002600060018152602001908152602001600020600201732b3a5bd2441abc9dc84cf7fc4c770baef0d6d6fd90806001815401808255809150509060018203906000526020600020016000909192909190916101000a81548173ffffffffffffffffffffffffffffffffffffffff021916908373ffffffffffffffffffffffffffffffffffffffff1602179055505060026000600181526020019081526020016000206002017393029b2a3a2ff092e9f92b00e6179c99ad698a1690806001815401808255809150509060018203906000526020600020016000909192909190916101000a81548173ffffffffffffffffffffffffffffffffffffffff021916908373ffffffffffffffffffffffffffffffffffffffff160217905550506002600181905550610616565b828054600181600116156101000203166002900490600052602060002090601f016020900481019282601f106105b257805160ff19168380011785556105e0565b828001600101855582156105e0579182015b828111156105df5782518255916020019190600101906105c4565b5b5090506105ed91906105f1565b5090565b61061391905b8082111561060f5760008160009055506001016105f7565b5090565b90565b610ad2806106256000396000f3fe608060405260043610610083576000357c0100000000000000000000000000000000000000000000000000000000900463ffffffff16806306fdde031461008857806307e89ba2146100b3578063314af5b4146100f0578063410d59cc1461011b57806351c5643814610146578063bfb231d214610183578063d85b1729146101c1575b600080fd5b34801561009457600080fd5b5061009d6101fe565b6040516100aa9190610927565b60405180910390f35b3480156100bf57600080fd5b506100da60048036036100d59190810190610694565b61029c565b6040516100e79190610949565b60405180910390f35b3480156100fc57600080fd5b506101056102bf565b6040516101129190610949565b60405180910390f35b34801561012757600080fd5b506101306102c5565b60405161013d9190610905565b60405180910390f35b34801561015257600080fd5b5061016d600480360361016891908101906106bd565b6104a6565b60405161017a91906108c8565b60405180910390f35b34801561018f57600080fd5b506101aa60048036036101a59190810190610694565b6104fe565b6040516101b8929190610964565b60405180910390f35b3480156101cd57600080fd5b506101e860048036036101e39190810190610694565b6105ba565b6040516101f591906108e3565b60405180910390f35b60008054600181600116156101000203166002900480601f0160208091040260200160405190810160405280929190818152602001828054600181600116156101000203166002900480156102945780601f1061026957610100808354040283529160200191610294565b820191906000526020600020905b81548152906001019060200180831161027757829003601f168201915b505050505081565b600060026000838152602001908152602001600020600201805490509050919050565b60015481565b60608060015460405190808252806020026020018201604052801561030457816020015b6102f161065e565b8152602001906001900390816102e95790505b50905060008090505b60015481101561049e576000600260008381526020019081526020016000209050806060604051908101604052908160008201548152602001600182018054600181600116156101000203166002900480601f0160208091040260200160405190810160405280929190818152602001828054600181600116156101000203166002900480156103de5780601f106103b3576101008083540402835291602001916103de565b820191906000526020600020905b8154815290600101906020018083116103c157829003601f168201915b505050505081526020016002820180548060200260200160405190810160405280929190818152602001828054801561046c57602002820191906000526020600020905b8160009054906101000a900473ffffffffffffffffffffffffffffffffffffffff1673ffffffffffffffffffffffffffffffffffffffff1681526020019060010190808311610422575b505050505081525050838381518110151561048357fe5b9060200190602002018190525050808060010191505061030d565b508091505090565b600060026000848152602001908152602001600020600201828154811015156104cb57fe5b9060005260206000200160009054906101000a900473ffffffffffffffffffffffffffffffffffffffff16905092915050565b6002602052806000526040600020600091509050806000015490806001018054600181600116156101000203166002900480601f0160208091040260200160405190810160405280929190818152602001828054600181600116156101000203166002900480156105b05780601f10610585576101008083540402835291602001916105b0565b820191906000526020600020905b81548152906001019060200180831161059357829003601f168201915b5050505050905082565b60606002600083815260200190815260200160002060020180548060200260200160405190810160405280929190818152602001828054801561065257602002820191906000526020600020905b8160009054906101000a900473ffffffffffffffffffffffffffffffffffffffff1673ffffffffffffffffffffffffffffffffffffffff1681526020019060010190808311610608575b50505050509050919050565b6060604051908101604052806000815260200160608152602001606081525090565b600061068c8235610a4a565b905092915050565b6000602082840312156106a657600080fd5b60006106b484828501610680565b91505092915050565b600080604083850312156106d057600080fd5b60006106de85828601610680565b92505060206106ef85828601610680565b9150509250929050565b61070281610a0e565b82525050565b6000610713826109c6565b808452602084019350610725836109a1565b60005b828110156107575761073b8683516106f9565b610744826109f4565b9150602086019550600181019050610728565b50849250505092915050565b600061076e826109bb565b80845260208401935061078083610994565b60005b828110156107b2576107968683516106f9565b61079f826109e7565b9150602086019550600181019050610783565b50849250505092915050565b60006107c9826109d1565b808452602084019350836020820285016107e2856109ae565b60005b8481101561081b5783830388526107fd838351610862565b925061080882610a01565b91506020880197506001810190506107e5565b508196508694505050505092915050565b6000610837826109dc565b80845261084b816020860160208601610a54565b61085481610a87565b602085010191505092915050565b600060608301600083015161087a60008601826108b9565b5060208301518482036020860152610892828261082c565b915050604083015184820360408601526108ac8282610763565b9150508091505092915050565b6108c281610a40565b82525050565b60006020820190506108dd60008301846106f9565b92915050565b600060208201905081810360008301526108fd8184610708565b905092915050565b6000602082019050818103600083015261091f81846107be565b905092915050565b60006020820190508181036000830152610941818461082c565b905092915050565b600060208201905061095e60008301846108b9565b92915050565b600060408201905061097960008301856108b9565b818103602083015261098b818461082c565b90509392505050565b6000602082019050919050565b6000602082019050919050565b6000602082019050919050565b600081519050919050565b600081519050919050565b600081519050919050565b600081519050919050565b6000602082019050919050565b6000602082019050919050565b6000602082019050919050565b6000610a1982610a20565b9050919050565b600073ffffffffffffffffffffffffffffffffffffffff82169050919050565b6000819050919050565b6000819050919050565b60005b83811015610a72578082015181840152602081019050610a57565b83811115610a81576000848401525b50505050565b6000601f19601f830116905091905056fea265627a7a7230582099617a0c1f679d06b17a4acd6c6d8d9a86f33868d7e515cd21e7af4c08d5f0626c6578706572696d656e74616cf50037",
  "source": "pragma solidity ^0.5.0;\npragma experimental ABIEncoderV2;\n\ncontract AccessArray {\n    struct Item {\n        uint id;\n        string name;\n        address payable[] accounts;\n    }\n\n    string public name;\n    uint public numberItems;\n\n    mapping (uint => Item) public items;\n\n    constructor() public {\n        name = \"Demo access array within mapping type memory\";\n\n// Definition  of 2 items \n        items[0].id = 0;\n        items[0].name = \"first entry\";\n        items[0].accounts.push(0xdaBEC0c136EC139686d29f7CCD4C2989fEc83e1a);\n        items[0].accounts.push(0x29a228B29C4b90F4F9542f85bBC725203025C8CD);\n        items[0].accounts.push(0x3e3F6622854Ec2E4fCD9cae612aa068d1f8aDD19);\n\n\n// this part could be improved\n        items[1].id = 1;\n        items[1].name = \"second entry\";\n        items[1].accounts.push(0xF6b34B0D8952E381eD43c849FdD148CBEEA0bDa0);\n        items[1].accounts.push(0x2b3A5Bd2441ABc9dc84Cf7fC4C770bAeF0D6d6fd);\n        items[1].accounts.push(0x2b3A5Bd2441ABc9dc84Cf7fC4C770bAeF0D6d6fd);\n        items[1].accounts.push(0x93029b2A3a2ff092E9f92b00E6179C99Ad698A16);\n\n        numberItems= 2;\n    }\n\n\n/** first option\n */\n    function getNumberItemAccounts (uint index) public returns (uint) {\n        return items[index].accounts.length;\n    }\n\n/** Get 1 account defined by its index from an item defined by its index\n */\n    function getItemAccount(uint itemIndex, uint accountIndex) public returns (address payable){\n        return items[itemIndex].accounts[accountIndex];\n    }\n\n/** second option to return an array (version 0.5.0), work without pragma experimental\n */\n\n    function getAccounts(uint itemIndex) public returns (address payable[] memory) {\n        return items[itemIndex].accounts;\n    }\n\n    /** second option to return an arrayof structure (version 0.5.0), work only pragma experimental\n */\n\n\n      function getItems() public view returns (Item[] memory){\n      Item[]    memory a = new Item[](numberItems);\n      for (uint i = 0; i < numberItems; i++) {\n          Item storage b = items[i];\n          a[i] = b;\n      }\n      return a;\n  }\n}",
  "sourcePath": "/home/alex/Dev/Tut/access-array-solidity/src/contracts/AccessArray.sol",
  "compiler": {
    "name": "solc",
    "version": "0.5.0+commit.1d4f565a.Emscripten.clang"
  },
  "schemaVersion": "3.0.2",
  "updatedAt": "2020-02-19T00:06:42.318Z",
  "devdoc": {
    "methods": {}
  },
  "userdoc": {
    "methods": {
      "getAccounts(uint256)": {
        "notice": "second option to return an array (version 0.5.0), work without pragma experimental"
      },
      "getItemAccount(uint256,uint256)": {
        "notice": "Get 1 account defined by its index from an item defined by its index"
      },
      "getItems()": {
        "notice": "second option to return an arrayof structure (version 0.5.0), work only pragma experimental"
      },
      "getNumberItemAccounts(uint256)": {
        "notice": "first option"
      }
    }
  }
}